:020000040800F2
:1000000060040020010100080B1600086B120008B4
:100010000916000891010008C91900080000000035
:100020000000000000000000000000003916000879
:1000300093010008000000000D1600083B160008A0
:100040001B0100081B0100081B0100081B01000820
:100050001B0100081B0100083B0200081B010008EF
:100060001B0100081B0100081B0100081B01000800
:100070001B0100081B0100081B0100081B010008F0
:100080001B0100081B0100081B0100081B010008E0
:100090001B0100081B0100081B0100081B010008D0
:1000A0001B0100081B0100081B0100081B010008C0
:1000B0001B0100081B0100081B0100081B010008B0
:1000C0001B0100081B0100081B0100081B010008A0
:1000D0001B010008BD1900081B0100081B010008D6
:1000E0001B0100081B0100081B010008DFF80CD0F1
:1000F00000F03CF800480047491B0008600400205D
:100100000648804706480047FEE7FEE7FEE7FEE7B1
:10011000FEE7FEE7FEE7FEE7FEE7FEE7A5160008BE
:10012000ED00000840EA01039B0703D009E008C97D
:10013000121F08C0042AFAD203E011F8013B00F8AC
:10014000013B521EF9D27047D2B201E000F8012BF8
:10015000491EFBD270470022F6E710B513460A4647
:1001600004461946FFF7F0FF204610BD064C074D28
:1001700006E0E06840F0010394E807009847103477
:10018000AC42F6D3FFF7B6FF501C0008701C000805
:10019000FEE7704770B50C46054601F073F9A020E4
:1001A00001F03CF9E8B201F039F901F06BF9A12056
:1001B00001F034F9012001F0EBF82070BDE8704047
:1001C00001F080B92DE9F04116460F46054600249E
:1001D00007E039192846FFF7DDFF6D1C641CADB23E
:1001E000A4B2B442F5D3BDE8F08170B50D46044623
:1001F00001F048F9A02001F011F9E0B201F00EF988
:10020000284601F00BF9BDE8704001F05BB92DE91B
:10021000F04116460F46054600240AE0395D28469F
:10022000FFF7E3FF6D1CADB20A2000F08FF8641CED
:10023000A4B2B442F2D3BDE8F081012000F0A4B82A
:1002400072B600BFFEE70146002291F821000228A5
:1002500008D00420886300BF002081F8200000BF80
:10026000012070470868006820F00E000B681860D5
:100270000868006820F001000B68186091F84030B1
:1002800001209840CB6B5860012081F8210000BF0D
:10029000002081F8200000BF1046E2E770B5044658
:1002A000002594F82100022803D00420A063012532
:1002B00048E02068006820F00E002168086020688F
:1002C000006820F00100216808601F49206888420A
:1002D00001D1012026E01C4914312068884201D157
:1002E00010201FE0184928312068884201D180156C
:1002F00018E015493C312068884201D1801411E092
:10030000114950312068884202D14FF4803009E011
:100310000D4964312068884202D14FF4801001E019
:100320004FF08070084908394860012084F82100A6
:1003300000BF002084F8200000BF606B10B1204691
:10034000616B8847284670BD0800024070B50446BE
:1003500000F020F906462546681C10B104480078D4
:10036000054400BF00F016F9801BA842FAD370BD07
:100370000C000020012804D102490978C943014A30
:100380001170704700000020044910B50A6802424D
:1003900002D00860FFF7EEFF10BD0000140401401A
:1003A0002DE9F84FDFF8B891002409F1040A0AF1A9
:1003B000040B23460F270BF1040EC9E00125A540CD
:1003C0002A40AA427DD1674ED1F804C0ACEB0608A2
:1003D000B44532D014DCBCF1030F3AD009DCBCF1D7
:1003E000000F2AD0BCF1010F1CD0BCF1020F31D19B
:1003F0001DE0BCF1110F17D0BCF1120F2AD119E08A
:10040000B8F5881F19D006DCB8F5803F15D0B8F5CF
:10041000801F1FD111E0B8F5001F0ED0B8F5041FE2
:1004200018D10AE0CB6815E0CB681B1D12E0CB6841
:1004300008330FE0CB680C330CE08B682BB1012B39
:100440004FF0080303D0456104E0042302E0056196
:1004500000E00023FF2A01D8064601E000F104066F
:100460004FEA840501D9A5F12005D6F8008007FAE6
:1004700005FC28EA0C0803FA05F548EA0508C6F861
:1004800000804D68ED0062D5374DAE6946F001063B
:10049000AE61AD6924F0030605F001050095334D0A
:1004A00006EB050CDCF80850A607360F07FA06F82D
:1004B00025EA0805DFF8B880404503D14FF0000871
:1004C00017E044E0DFF8AC80404502D14FF001086E
:1004D0000FE0DFF8A480404502D14FF0020808E0A9
:1004E000DFF89880404502D14FF0030801E04FF05B
:1004F000040808FA06F848EA0508CCF808804D68B0
:10050000D9F80060ED034D4601D5164300E096434F
:100510002E604D68DAF80060AD03554601D51643EC
:1005200000E096432E604D68DBF80060ED025D460A
:1005300001D5164300E096432E604D68DEF800605A
:10054000AD02754601D5164300E096432E60641C4B
:100550000D682A46E5407FF431AFBDE8F88F000012
:100560000004014000001110001002400000014092
:1005700000080140000C014000100140001401403F
:100580008068084000D0012070470AB101617047BF
:100590000904FBE7014800687047000004000020E0
:1005A0000348006803490978084401490860704716
:1005B000040000200C00002010B50848006840F03E
:1005C000100006490860032000F0A8F80F2000F092
:1005D00007F800F02BF8002010BD000000200240BA
:1005E00070B504460E4800784FF47A71B1FBF0F014
:1005F0000C490968B1FBF0F5284600F00BFC08B186
:10060000012070BD102C07D200222146501E00F0A0
:1006100047F80548046001E00120F2E70020F0E718
:100620000C000020100000200800002008B500BFCA
:100630001148806940F001000F49886108468069CF
:1006400000F00100009000BF00BF00BF0846C06975
:1006500040F08050C8610846C06900F080500090AA
:1006600000BF00BF00BF0549486820F0E06040F0CF
:100670008060486000BF08BD0010024000000140DB
:1006800001460846002809DB00F01F0301229A40BA
:1006900043099B0003F1E023C3F8002100BF70472A
:1006A0002DE9F05F80460D461646002701F09EF9C1
:1006B000074639462A46334601F00700C0F1070ACB
:1006C000BAF1040F02D94FF0040A01E0C0F1070AA1
:1006D000D14600F1040ABAF1070F02D24FF0000A26
:1006E00001E0A0F1030AD4464FF0010A0AFA09FA20
:1006F000AAF1010A0AEA020A0AFA0CFA4FF0010BFF
:100700000BFA0CFBABF1010B0BEA030B4AEA0B04EF
:100710002146404601F072F9BDE8F09F00BF00F0AD
:100720000702064B19684FF6FF031940044B0B43B1
:1007300043EA0221014B196000BF70470CED00E055
:100740000000FA0570B504460D460CB9012070BDD5
:100750005A48006800F00700A8420ED257480068C7
:1007600020F007002843554908600846006800F05B
:100770000700A84201D00120E9E7207800F002003C
:1007800002281DD1207800F00400042805D14C482F
:10079000406840F4E0604A494860207800F0080072
:1007A000082805D14648406840F4605044494860F4
:1007B0004348406820F0F000A16808434049486081
:1007C000207800F0010078B36068012806D13C4829
:1007D000006800F4003090B90120B8E76068022892
:1007E00006D13748006800F0007040B90120AEE73C
:1007F0003348006800F0020008B90120A7E730483C
:10080000406820F00300616808432D494860FFF705
:10081000C1FE064609E0FFF7BDFE801B41F28831AC
:10082000884202D9032092E707E02548406800F09B
:100830000C006168B0EB810FEDD12048006800F03A
:100840000700A8420ED91D48006820F00700284381
:100850001A4908600846006800F00700A84201D065
:10086000012074E7207800F00400042807D1144820
:10087000406820F4E060E16808431149486020784E
:1008800000F00800082808D10D48406820F46050A6
:10089000216940EAC1000A49486000F03FF8084970
:1008A0004968C1F30311074A515CC8400649086012
:1008B00006480068FFF794FE002048E70020024049
:1008C00000100240381C0008100000200800002022
:1008D00001480068704700001000002000B5FFF7D5
:1008E000F7FF04494968C1F30221034A515CC8403B
:1008F00000BD000000100240481C000800B5FFF7D2
:10090000E7FF04494968C1F3C221034A515CC8406A
:1009100000BD000000100240481C0008F0B585B082
:100920000FF26C0C9CE8E01001A8A0E8E0101CA5F8
:100930002D68009500210022002300240020194D7D
:10094000696801F00C05F5B1042D02D0082D19D10C
:1009500001E0154819E001ADC1F38346AC5D01F437
:10096000803555B10F4D6D68C5F340451DF8052024
:100970000D4D6543B5FBF2F302E00C4D04FB05F3AE
:10098000184602E000BF084800BF00BF05B0F0BD38
:1009900002030405060708090A0B0C0D0E0F1010C0
:1009A000010200000010024000127A0000093D0020
:1009B000F8B504460CB90120F8BD207800F001001C
:1009C000002878D0F848406800F00C0004280CD0CB
:1009D000F548406800F00C00082811D1F248406842
:1009E00000F48030B0F5803F0AD1EF48006800F491
:1009F000003000285FD0606800285CD10120DBE770
:100A000000BF6068B0F5803F06D1E748006840F459
:100A10008030E549086028E0606858B9E24800681D
:100A200020F48030E04908600846006820F4802007
:100A300008601AE06068B0F5A02F0BD1DA480068B2
:100A400040F48020D84908600846006840F48030AF
:100A500008600AE0D448006820F48030D249086079
:100A60000846006820F48020086000BF606888B1F4
:100A7000FFF790FD054606E0FFF78CFD401B64285C
:100A800001D9032098E7C848006800F40030002826
:100A9000F2D010E0FFF77EFD054606E0FFF77AFD95
:100AA000401B642801D9032086E7BF48006800F492
:100AB00000300028F2D1207800F00200022857D13F
:100AC000B948406800F00C0050B1B748406800F0E9
:100AD0000C00082818D1B448406800F4803098B958
:100AE000B148006800F0020020B12069012801D05F
:100AF000012061E7AC48006820F0F800616940EA35
:100B0000C100A949086033E02069E8B10120A74984
:100B10000860FFF73FFD054606E0FFF73BFD401B81
:100B2000022801D9032047E79F48006800F002002F
:100B30000028F2D09C48006820F0F800616940EA83
:100B4000C1009949086013E0002098490860FFF748
:100B500021FD054606E0FFF71DFD401B022801D9D7
:100B6000032029E79048006800F002000028F2D135
:100B7000207800F0080008282DD1A069B8B1012024
:100B80008B490860FFF706FD054606E0FFF702FD0A
:100B9000401B022801D903200EE78348406A00F079
:100BA00002000028F2D0012000F032FD13E0002006
:100BB0007F490860FFF7EEFC054606E0FFF7EAFC18
:100BC000401B022801D90320F6E67748406A00F06E
:100BD00002000028F2D1207800F00400042873D12C
:100BE00000277148C06900F0805070B900BF6E489E
:100BF000C06940F080506C49C8610846C06900F087
:100C00008050009000BF00BF01276A48006800F4D0
:100C10008070B0B96748006840F48070654908602A
:100C2000FFF7B8FC054606E0FFF7B4FC401B64285C
:100C300001D90320C0E65F48006800F480700028F6
:100C4000F2D000BFE068012806D15748006A40F0A2
:100C500001005549086227E0E06858B95248006A27
:100C600020F00100504908620846006A20F00400A4
:100C7000086219E0E06805280BD14B48006A40F093
:100C80000400494908620846006A40F00100086211
:100C90000AE04548006A20F001004349086208461E
:100CA000006A20F00400086200BFE068A0B1FFF70E
:100CB00071FC054609E0FFF76DFC401B41F28831ED
:100CC000884202D9032077E622E03748006A00F024
:100CD00002000028EFD012E0FFF75CFC054608E0B8
:100CE000FFF758FC401B41F28831884201D90320AC
:100CF00062E62D48006A00F002000028F0D1012FC2
:100D000005D12948C06920F080502749C86100BF3B
:100D1000E069C8B32448406800F00C00082860D09F
:100D2000E069022848D1002020490866FFF732FC1C
:100D3000054606E0FFF72EFC401B022801D90320E0
:100D40003AE61948006800F000700028F2D1206AE5
:100D5000B0F5803F07D11448406820F40030A16806
:100D6000084311494860D4E9080108430E4949681D
:100D700021F4741108430C49486001200B490866AE
:100D8000FFF708FC054607E03DE0FFF703FC401BCA
:100D9000022801D903200FE60348006800F0007024
:100DA0000028F2D02FE00000001002400000424274
:100DB0008004424200700040002014490866FFF79A
:100DC000E9FB054606E0FFF7E5FB401B022801D9D9
:100DD0000320F1E50E48006800F000700028F2D111
:100DE00011E0E069012800D1E6E50948466806F40B
:100DF0008031206A814204D106F47011606A814218
:100E000001D00120D8E50020D6E5000000004242D4
:100E10000010024070B504462546681EB0F1807F80
:100E200001D301200FE0681E4FF0E02148610F213F
:100E30004FF0FF3000F0E2FD00204FF0E02188612C
:100E400007200861002070BD704770472DE9F84FFA
:100E50000446206805682068C668206847694FF026
:100E60000009CA4605F00F09B9F1000F0AD105F0D3
:100E7000200038B106F0200020B1204600F048FCE8
:100E8000BDE8F88FB9F1000F71D007F0010018B973
:100E900006F4907000286AD005F0010030B106F425
:100EA000807018B1206C40F00100206405F004004F
:100EB00030B107F0010018B1206C40F0020020644E
:100EC00005F0020030B107F0010018B1206C40F0CD
:100ED0000400206405F0080048B106F0200010B9B5
:100EE00007F0010018B1206C40F008002064206C6D
:100EF00068B305F0200028B106F0200010B12046AC
:100F000000F006FC20684069C0F3801A206C00F0F5
:100F1000080010B9BAF1000F22D0204600F0CDFB36
:100F20002068406900F04000B0B12068406920F0BE
:100F3000400021684861A06B50B15648A16B4863DE
:100F4000A06BFFF7ABF910B1A06B416B88470CE0C9
:100F50002046FFF77AFF08E02046FFF776FF04E01F
:100F60002046FFF772FF0020206489E7FFE7206B2F
:100F7000012878D105F01000002874D006F0100088
:100F8000002870D000BF002000902068006800900A
:100F900020684068009000BF00BF2068406900F0F2
:100FA0004000C0B3A06B006840681FFA80F8B8F139
:100FB000000F2FD0A08D40452CDDA4F82E80A06B13
:100FC000806920281FD02068C06820F480702168C4
:100FD000C8602068406920F00100216848612068ED
:100FE000406920F0400021684861202084F83E00DC
:100FF000002020632068C06820F010002168C860CD
:10100000A06BFFF720F9A08DE28D801A81B22046F7
:10101000FFF71AFF34E7FFE7A08DE18D401A1FFAB2
:1010200080F8E08DE8B1B8F1000F1AD02068C068F0
:1010300020F490702168C8602068406920F00100A9
:1010400021684861202084F83E0000202063206849
:10105000C06820F010002168C86041462046FFF7B4
:10106000F3FE0DE7FFE705F0800030B106F08000E9
:1010700018B1204600F03CFC02E705F0400030B11A
:1010800006F0400018B1204600F032FBF8E600BF41
:10109000F6E60000A716000810B504460CB90120BA
:1010A00010BDA06900B100E000BF94F83D0028B970
:1010B000002084F83C00204600F028F8242084F822
:1010C0003D002068C06820F400502168C8602046B8
:1010D00000F090FB2068006920F4904021680861CE
:1010E0002068406920F02A00216848612068C068B3
:1010F00040F400502168C86000202064202084F85B
:101100003D0084F83E000020CAE7000010B586B01C
:101110000446002002900390049005901A4920682C
:1011200088422ED100BF1948806940F48040174999
:1011300088610846806900F48040019000BF00BFCC
:1011400000BF0846806940F0040088610846806955
:1011500000F00400019000BF00BF4815029002207B
:1011600003900320059002A90948FFF719F94FF4ED
:101170008060029000200390049002A90448FFF7C9
:101180000FF906B010BD0000003801400010024009
:101190000008014070472DE9F84F04460E461746F7
:1011A00099464FF0000A94F83D0020285AD106B124
:1011B00017B90120BDE8F88F00BF94F83C00012862
:1011C00001D10220F6E7012084F83C0000BF002096
:1011D0002064212084F83D00FFF7DCF98246A784D3
:1011E000E784A068B0F5805F04D1206910B90025BC
:1011F000B04602E035464FF0000800BF002084F8FA
:101200003C0000BF1BE05346002280212046CDF861
:10121000009000F09DFB08B10320CBE745B9B8F87A
:101220000000C0F308002168486008F1020803E0EC
:101230002878216848606D1CE08C401EE084E08CBA
:101240000028E0D15346002240212046CDF80090EE
:1012500000F07EFB08B10320ACE7202084F83D00BD
:101260000020A7E70220A5E77047FEE710B500F0D1
:10127000C5F8114C002240212046FFF786F90520D1
:1012800000F0C6FC002280212046FFF77EF90520F1
:1012900000F0BEFC012240212046FFF776F9052030
:1012A00000F0B6FC002240212046FFF76EF9BDE8B1
:1012B0001040052000F0ACBC000C01407FB50024BC
:1012C0000320CDE9024080201C4D00900194694626
:1012D0002846FFF765F8002240212846FFF755F918
:1012E000052000F095FC012280212846FFF74DF9EA
:1012F000052000F08DFC012240212846FFF745F92A
:10130000052000F085FC0BE0641CE4B2FA2C07D940
:10131000002240212846FFF738F9012004B070BDB3
:1013200080212846FFF72CF90028EDD1002240212A
:101330002846FFF72AF90020F0E70000000C0140E2
:1013400010B500F05BF8114C002240212046FFF759
:101350001CF9052000F05CFC012280212046FFF7EB
:1013600014F9052000F054FC012240212046FFF72B
:101370000CF9052000F04CFC002240212046FFF72C
:1013800004F9BDE81040052000F042BC000C01400B
:101390002DE9F041184E07460025FF242A4640213A
:1013A0003046FFF7F2F8052000F032FC0122402120
:1013B0003046FFF7EAF8052000F02AFC6006040E2C
:1013C00080213046FFF7DCF808B144F00104002228
:1013D00040213046FFF7D9F8052000F019FC6D1CBC
:1013E000EDB2082DE2D327B1FFF7AAFF2046BDE8F2
:1013F000F081FFF73BFFF9E7000C01401FB501202A
:1014000001900290032003908020009069460248DA
:10141000FEF7C6FF1FBD0000000C014070B5054679
:101420000024FFF7EBFF164E002240213046FFF765
:10143000ACF8052000F0ECFB280601D5012200E005
:10144000002280213046FFF7A0F86806050E012231
:1014500040213046FFF799F8052000F0D9FB641CC5
:10146000E4B2082CE0D3002240213046FFF78DF88B
:10147000052000F0CDFBBDE87040FFF71FBF000066
:10148000000C014010B5FFF7B9FF0D4C01224021BF
:101490002046FFF77AF8052000F0BAFB01228021F0
:1014A0002046FFF772F8052000F0B2FB00228021F1
:1014B0002046FFF76AF8BDE81040052000F0A8BB01
:1014C000000C014010B5FFF799FF0D4C0022802160
:1014D0002046FFF75AF8052000F09AFB0122402130
:1014E0002046FFF752F8052000F092FB01228021F0
:1014F0002046FFF74AF8BDE81040052000F088BB01
:10150000000C014000B585B00020019002900390CE
:10151000049000BF2148806940F020001F49886185
:101520000846806900F02000009000BF00BF00BFA7
:101530000846806940F0040088610846806900F030
:101540000400009000BF00BF00BF0846806940F063
:10155000080088610846806900F00800009000BF1C
:1015600000BF002240210E48FFF70FF80120019034
:101570000C4802900020039001A90B48FEF710FFD1
:10158000402001900120029000200390032004904D
:1015900001A90348FEF704FF05B000BD001002409A
:1015A000000C0140000011100008014010B500229D
:1015B00001210620FFF774F80620FFF761F80022EA
:1015C00011462520FFF76CF82520FFF759F810BDCC
:1015D00010B50B480B4908604FF4E130486000211A
:1015E00008488160C16001610C2141610021816175
:1015F000C161FFF751FD08B1FEF722FE10BD0000EA
:101600000038014018000020FEE7FEE770470000A8
:1016100008B508490968C9084FF47A72B1FBF2F1BC
:101620004143009100BF00BF00994A1E009200296B
:10163000F9D108BD100000207047FEF7B1BF00B51A
:101640008FB0282105A8FEF786FD14216846FEF715
:1016500082FD0120059000040690002007900120E3
:10166000099002200C90C1030D914FF4E0110E91EE
:1016700005A8FFF79DF908B1FEF7E2FD0F200090E5
:1016800002200190002002904FF48060039000201F
:10169000049002216846FFF755F808B1FEF7D0FD27
:1016A0000FB000BD704770B505466C6A0020E0853C
:1016B000E0842046FFF7C9FB70BD0168C96821F4CA
:1016C00090710268D1600168496921F001010268E6
:1016D0005161016B012905D10168C96821F0100130
:1016E0000268D160202180F83E100021016370471C
:1016F00010B504462068C06820F040002168C8602A
:10170000202084F83D002046FFF7AEFD002010BDEC
:10171000F8B5044694F83E00222869D1A068B0F5D7
:10172000805F0CD1206950B90025A66A2068406806
:10173000C0F308003080A06A801CA06215E0A56A92
:101740000026A068B0F5805F03D0A06828B92069A2
:1017500018B920684068287004E02068406800F0EC
:101760007F002870A06A401CA062E08D401E80B2FD
:10177000E085A8BB2068C06820F020002168C86010
:101780002068C06820F480702168C86020684069C3
:1017900020F0010021684861202084F83E00206B81
:1017A00001281ED1002020632068C06820F01000AE
:1017B0002168C8602068006800F0100010280AD175
:1017C00000BF0020009020680068009020684068FA
:1017D000009000BF00BFA18D2046FFF735FB03E05E
:1017E00004E02046FFF7D6FC0020F8BD0020FCE70F
:1017F0000220FAE770B504462168096921F44051D6
:10180000E2681143226811612269A168114362698B
:1018100041EA02052168C96841F20C6291432943FB
:101820002268D1602168496921F44071A26911439D
:10183000226851612D4A2168914202D1FFF75EF87A
:1018400001E0FFF74BF800EBC00101EB001162680B
:101850009200B1FBF2F100EBC00202EB00126368F0
:101860009B00B2FBF3F26423B2FBF3F202EBC20380
:1018700003EB0212A1EB8201322202EB011164227E
:10188000B1FBF2F101F0F00100EBC00202EB00123B
:1018900063689B00B2FBF3F26423B2FBF3F201EB4B
:1018A000021200EBC00101EB001163689B00B1FB69
:1018B000F3F100EBC00303EB00136668B600B3FB63
:1018C000F6F36426B3FBF6F303EBC30606EB031350
:1018D000A1EB8301322303EB01116423B1FBF3F18C
:1018E00001F00F0111442268916070BD0038014081
:1018F000014691F83D00212828D18868B0F5805F25
:101900000BD1086948B90A6A1088C0F308000B684F
:101910005860086A801C086205E00B6A581C08625F
:1019200018780B685860C88C401E80B2C88458B9BB
:101930000868C06820F080000B68D8600868C0683C
:1019400040F040000B68D860002070470220FCE7A0
:101950002DE9F04104460D4617469846069E21E0C3
:10196000701CF8B12EB1FEF715FEA0EB0800B042D6
:1019700018D92068C06820F4D0702168C860206839
:10198000406920F0010021684861202084F83D0072
:1019900084F83E0000BF002084F83C0000BF032014
:1019A000BDE8F081206800682840A84201D10120EC
:1019B00000E00020B842D3D00020F1E70148FFF753
:1019C00045BA000018000020FEE700000FB4054BE8
:1019D00010B503A9044A029800F033F810BC5DF872
:1019E00014FB0000191B00081400002002480068C6
:1019F000C0F30220704700000CED00E010B5002895
:101A000004DB0A07130E054A135406E00A07140EF6
:101A1000034A00F00F031B1FD45410BD00E400E084
:101A200018ED00E002E008C8121F08C1002AFAD130
:101A300070477047002001E001C1121F002AFBD14E
:101A400070472DE9F84F994692468846054600278B
:101A500006E025280AD051464A4690476D1C7F1C57
:101A600028780028F5D13846BDE8F88F002315F80E
:101A7000011F18462E2915D115F8011F04232A2904
:101A80000DD06FF02F022978A1F13004092C09D86C
:101A900000EB800002EB400008446D1CF3E758F8AF
:101AA000040B6D1C2A78002ADDD0632A07D0732A24
:101AB0000FD0104651464A4690477F1C2AE018F83E
:101AC000042B8DF8002000218DF801106E460121B5
:101AD00003E058F8046B4FF0FF315A074FF0000451
:101AE00001D409E0641C84420BDA8C42FADB325DDB
:101AF000002AF7D105E0641C8C42FCDB305D002835
:101B0000F9D1274404E016F8010B51464A469047A4
:101B1000641EF8D26D1CA3E713B50C460A230122FC
:101B200069460248FFF737FB00981CBD18000020EB
:101B30000448007820B10020024908700120704755
:101B40000020FCE7000000208AB014221D4905A8EF
:101B5000FEF7E8FA14216846FEF7FDFAFEF72CFDC1
:101B6000FFF76DFDFFF7CEFCFFF732FDFFF71EFD1F
:101B700015A0FFF72BFF19A0FFF728FF12A0FFF712
:101B800025FF1EE0FFF7D4FFD8B1142205A90020DD
:101B9000FEF73DFB0120FEF7D9FB14226946002029
:101BA000FEF710FB0120FEF7D1FB69460EA0FFF700
:101BB0000DFF694611A0FFF709FF14216846FEF7E3
:101BC000CAFADFE7241C00082A2A2A2A2A2A2A2AF3
:101BD0002A2A2A2A2A2A2A2A2A0D0A006932632056
:101BE000746573740D0A0000454550524F4D2057DF
:101BF00072697465203A25730D0A000045455052FC
:101C00004F4D2052656164203A25730D0A00000093
:101C100003E00921491E89B2FCD2401E80B2F8D2ED
:101C20007047000048656C6C6F2049494300000014
:101C300000000000000000000000000000000000A4
:101C40000102030406070809000000000102030462
:101C5000701C00080000002018000000241A000872
:101C6000881C00081800002048040000341A0008EE
:101C70000000000000000000100000000100000053
:081C80000024F4000000000044
:04000005080000ED02
:00000001FF
